:100000000C9462000C948A000C948A000C948A0070
:100010000C948A000C948A000C948A000C948A0038
:100020000C948A000C948A000C948A000C948A0028
:100030000C948A000C948A000C948A000C948A0018
:100040000C94F1030C948A000C9461040C943B040E
:100050000C948A000C948A000C948A000C948A00F8
:100060000C9493040C948A000000000024002700E4
:100070002A000000000023002600290000000000E4
:10008000250028002B0004040404040404040202D4
:100090000202020203030303030301020408102007
:1000A0004080010204081020010204081020000012
:1000B0000008000201000003040700000000000027
:1000C0000000B20511241FBECFEFD8E0DEBFCDBFC8
:1000D00011E0A0E0B1E0E6E5F0E102C005900D928C
:1000E000AC34B107D9F722E0ACE4B1E001C01D9215
:1000F000A43CB207E1F710E0C2E6D0E004C02197CB
:10010000FE010E942308C136D107C9F70E94FA05F3
:100110000C9429080C940000833081F028F481307D
:1001200099F08230A9F008958730A9F08830C9F09D
:100130008430B1F4809180008F7D03C08091800075
:100140008F7780938000089584B58F7784BD08955C
:1001500084B58F7DFBCF8091B0008F778093B00006
:1001600008958091B0008F7DF9CFCF93DF93282F32
:1001700030E0F901E255FF4F8491F901E656FF4F57
:10018000D491F901EA57FF4FC491CC2389F0811132
:100190000E948C00EC2FF0E0EE0FFF1FE458FF4FA1
:1001A000A591B4918FB7F894EC91DE2BDC938FBFBF
:1001B000DF91CF9108953FB7F89480910B02909111
:1001C0000C02A0910D02B0910E0226B5A89B05C0AD
:1001D0002F3F19F00196A11DB11D3FBFBA2FA92FC6
:1001E000982F8827BC01CD01620F711D811D911DC3
:1001F00042E0660F771F881F991F4A95D1F708952F
:100200008F929F92AF92BF92CF92DF92EF92FF9226
:100210004B015C010E94DB006B017C010E94DB0052
:100220006C197D098E099F09683E7340810591050F
:10023000A8F321E0821A9108A108B10888EEC80E3F
:1002400083E0D81EE11CF11C81149104A104B104C7
:1002500029F7FF90EF90DF90CF90BF90AF909F90E5
:100260008F900895AF92BF92CF92DF92EF92FF925C
:100270000F931F93CF93DF936C017B018B01040FCE
:10028000151FEB015E01AE18BF08C017D10759F06A
:100290006991D601ED91FC910190F081E02DC601AC
:1002A0000995892B79F7C501DF91CF911F910F91A6
:1002B000FF90EF90DF90CF90BF90AF90089508959A
:1002C0000895FC01538D448D252F30E0842F90E05C
:1002D000821B930B541710F0CF9608950197089541
:1002E000FC01918D828D981761F0A28DAE0FBF2F0A
:1002F000B11D5D968C91928D9F5F9F73928F90E060
:1003000008958FEF9FEF0895FC01918D828D9817CE
:1003100031F0828DE80FF11D858D90E008958FEF0B
:100320009FEF0895FC01918D228D892F90E0805CD4
:100330009F4F821B91098F73992708958FE092E058
:100340000E94920121E0892B09F420E0822F089578
:1003500080E090E0892B29F00E949E0181110C948D
:1003600000000895FC01A48DA80FB92FB11DA35A58
:10037000BF4F2C91848D90E001968F739927848FC5
:10038000A689B7892C93A089B1898C9183708064E8
:100390008C93938D848D981306C00288F389E02D89
:1003A00080818F7D80830895EF92FF920F931F933A
:1003B000CF93DF93EC0181E0888F9B8D8C8D981318
:1003C0001AC0E889F989808185FF15C09FB7F89424
:1003D000EE89FF896083E889F98980818370806470
:1003E00080839FBF81E090E0DF91CF911F910F91BB
:1003F000FF90EF900895F62E0B8D10E00F5F1F4FCA
:100400000F731127E02E8C8D8E110CC00FB607FCD8
:10041000FACFE889F989808185FFF5CFCE010E9466
:10042000B201F1CFEB8DEC0FFD2FF11DE35AFF4F21
:10043000F0829FB7F8940B8FEA89FB8980818062F4
:10044000CFCFCF93DF93EC01888D8823B9F0AA89B1
:10045000BB89E889F9898C9185FD03C0808186FD7F
:100460000DC00FB607FCF7CF8C9185FFF2CF8081CE
:1004700085FFEDCFCE010E94B201E9CFDF91CF9190
:10048000089585ED8093BC008091BC0084FDFCCF75
:100490001092FB0108952091AE01260F3327331FE0
:1004A00021323105ECF42091FB01FC0190E080E069
:1004B000243069F082E00895A091AE012191AC0151
:1004C00042575E4FA40FB52FB11D2C93019686178E
:1004D00098F38091AE01680F6093AE0180E00895BB
:1004E00081E008950895E091FF018091FE01E817F1
:1004F00030F4F0E0E259FE4F808190E008958FEFF4
:100500009FEF08959091FF018091FE012FEF3FEF43
:10051000981748F4E92FF0E0E259FE4F208130E0CF
:100520009F5F9093FF01C90108958091FE01909112
:10053000FF01891B990B0895CF92DF92EF92FF92F2
:100540000F931F93CF93DF937C01CB018A012091FE
:100550006D01222389F0EB016B01C40ED51ECC1571
:10056000DD0569F06991D701ED91FC910190F08171
:10057000E02DC7010995F3CF642F0E944B02C801FB
:10058000DF91CF911F910F91FF90EF90DF90CF906F
:100590000895CF93DF931F92CDB7DEB76983209183
:1005A0006D012223F9F02091FC01203258F021E066
:1005B00030E0FC013383228390E080E00F90DF91F4
:1005C000CF9108958091FD01E82FF0E0E35BFE4FAD
:1005D000998190838F5F8093FD018093FC0181E07E
:1005E00090E0ECCF61E0CE0101960E944B02F7CF84
:1005F000CF93FC01C48121E020936D01C0934C0195
:100600001092FD011092FC018385682B8CEA92E028
:100610000E94C9029091FC01913208F03FC0809184
:10062000FB018111FCCF82E08093FB0181E080938C
:10063000FA018FEF8093D1011092F3019093F201B0
:10064000ADE4B1E0E2EDF1E080E098132FC010924C
:10065000F4018091F401CC0FC82BC093F401809178
:10066000F901813039F51092F9018091F4018093FC
:10067000BB008091BC0083FDF8CF85EC8093BC006B
:100680008091FB018230E1F38091D1018F3F31F005
:100690008091D101803211F08091D1011092FD0141
:1006A0001092FC0110926D01CF9108952D9121932C
:1006B0008F5FCBCF85EEE2CF089590E080E0089584
:1006C000FB0101900020E9F73197AF01461B570B62
:1006D000DC01ED91FC910280F381E02D09948F9271
:1006E0009F92AF92BF92EF92FF920F931F93CF937F
:1006F000DF93CDB7DEB7A1970FB6F894DEBF0FBE7C
:10070000CDBF7C01FA01CB0119A2223008F42AE006
:100710008E010F5D1F4F822E912CB12CA12CBF0199
:10072000A50194010E940108F901CA016A300CF583
:10073000605DD8016E938D01232B242B252B79F737
:1007400090E080E0109721F0BD01C7010E94600396
:10075000A1960FB6F894DEBF0FBECDBFDF91CF914B
:100760001F910F91FF90EF90BF90AF909F908F904F
:100770000895695CDECF0F931F93CF938C01C62F32
:100780000E94F8026C2F6460C8010E94F8026C2F6E
:100790006B7FC8010E94F80283EC90E00197F1F7AB
:1007A000CF911F910F9108950F931F93CF93DF93D4
:1007B0008C01D62FC42F607F642B0E94BB0380E185
:1007C000D89FB00111246C2BC801DF91CF911F91EC
:1007D0000F910C94BB0341E00E94D40381E090E0B0
:1007E00008951F920F920FB60F9211242F933F93EB
:1007F0008F939F93AF93BF938091070290910802CC
:10080000A0910902B0910A023091060223E0230F61
:100810002D3758F50196A11DB11D20930602809336
:10082000070290930802A0930902B0930A028091F4
:100830000B0290910C02A0910D02B0910E02019654
:10084000A11DB11D80930B0290930C02A0930D0289
:10085000B0930E02BF91AF919F918F913F912F91D5
:100860000F900FBE0F901F90189526E8230F029649
:10087000A11DB11DD2CF1F920F920FB60F9211245E
:100880002F933F934F935F936F937F938F939F9398
:10089000AF93BF93EF93FF938FE092E00E94B2017A
:1008A000FF91EF91BF91AF919F918F917F916F9148
:1008B0005F914F913F912F910F900FBE0F901F901E
:1008C00018951F920F920FB60F9211242F938F93AA
:1008D0009F93EF93FF93E0911F02F091200280819C
:1008E000E0912502F091260282FD1BC0908180914B
:1008F00028028F5F8F7320912902821741F0E091C7
:100900002802F0E0E15FFD4F958F80932802FF9170
:10091000EF919F918F912F910F900FBE0F901F908D
:1009200018958081F4CF1F920F920FB60F92112469
:100930002F933F934F935F936F937F938F939F93E7
:10094000AF93BF93EF93FF938091B900887F803678
:1009500009F44AC0F0F5883209F4A7C018F58031CF
:1009600009F49BC0B8F4882309F4F9C0883009F46D
:1009700094C0FF91EF91BF91AF919F918F917F9123
:100980006F915F914F913F912F910F900FBE0F90FC
:100990001F901895883109F488C0803251F78093F0
:1009A000D10114C0803409F49DC040F48033B9F300
:1009B0008833F9F68093D10185ECB0C0803509F415
:1009C00085C0883509F496C0883499F60E944102A2
:1009D000D0CF883909F48CC038F5883729F050F425
:1009E000883611F0803729F683E08093FB0110925E
:1009F000D00157C0883809F47BC0803919F080389D
:100A000009F0B7CF8091D001803208F071C0E09139
:100A1000D00181E08E0F8093D0018091BB00F0E087
:100A2000E055FE4F80833DC0803B39F0E0F4803AD2
:100A300009F479C0883A09F09CCF84E08093FB01E7
:100A40001092AF011092AE01E091F701F091F80120
:100A500009958091AE0181110FC081E08093AE01B4
:100A600010928E0109C0803C09F4A6CF883C09F49D
:100A7000A3CF883B09F07DCFE091AF0181E08E0FDD
:100A80008093AF01F0E0E257FE4F80818093BB007E
:100A90009091AF018091AE0129C08091F4018093C3
:100AA000BB0085EC8093BC0064CF9091F3018091F2
:100AB000F201981758F5E091F30181E08E0F8093D1
:100AC000F301F0E0EE52FE4F8081E9CFE091F301B7
:100AD00081E08E0F8093F3018091BB00F0E0EE5235
:100AE000FE4F80839091F3018091F2019817C8F234
:100AF00085E8D8CFE091F30181E08E0F8093F30178
:100B00008091BB00F0E0EE52FE4F80838091FA01AD
:100B100081115CCF81E08093F90184EA8093BC006D
:100B20001092FB0126CF85EC8093BC001092FB0154
:100B30008091D001803230F4E091D001F0E0E055B6
:100B4000FE4F10826091D00170E0E091F501F091CC
:100B5000F60180EB91E009951092D0010ACF109236
:100B6000D10134CFEFE0F2E01382128288EE93E0FD
:100B7000A0E0B0E084839583A683B7832CE031E0C6
:100B80003183208325EC30E03587248724EC30E066
:100B90003787268720EC30E0318B208B21EC30E04A
:100BA000338B228B22EC30E0358B248B26EC30E02B
:100BB000378B268B118E128E138E148EECEAF2E098
:100BC0001382128284839583A683B7838EE191E09A
:100BD00091838083E8EBF2E01382128280E391E05C
:100BE000918380838FE3848380E1818782E08287A1
:100BF00013860895CF93DF93CDB7DEB728970FB64E
:100C0000F894DEBF0FBECDBF789484B5826084BDFA
:100C100084B5816084BD85B5826085BD85B5816000
:100C200085BD80916E00816080936E00109281007E
:100C30008091810082608093810080918100816039
:100C400080938100809180008160809380008091FA
:100C5000B10084608093B1008091B0008160809386
:100C6000B00080917A00846080937A0080917A004D
:100C7000826080937A0080917A00816080937A000C
:100C800080917A00806880937A001092C10010925F
:100C9000FF011092FE011092FD011092FC011092D2
:100CA000FB0181E08093FA011092F90182E10E9438
:100CB000B50083E10E94B5008091B9008E7F8093DA
:100CC000B9008091B9008D7F8093B90088E480934A
:100CD000B80085E48093BC008FE591E09093F80123
:100CE0008093F70180E691E09093F6018093F501FF
:100CF0001092BD028091C202823018F098E0909369
:100D0000BD028093C00262E370E080E090E00E9448
:100D100000016091C30288EB92E00E94F80268EE45
:100D200073E080E090E00E94000160E388EB92E0D5
:100D30000E94BB030BE416E4C8010197F1F760E3DE
:100D400088EB92E00E94BB03C8010197F1F760E3D2
:100D500088EB92E00E94BB0383E592E00197F1F7F4
:100D600060E288EB92E00E94BB036091BD0260628A
:100D700040E088EB92E00E94D40384E08093BE02BE
:100D800040E06CE088EB92E00E94D40340E061E038
:100D900088EB92E00E94D4030BE31FE1C8010197A6
:100DA000F1F782E08093BF0240E066E088EB92E0DA
:100DB0000E94D40340E062E088EB92E00E94D403FA
:100DC000C8010197F1F788E08093C30260E088EBE7
:100DD00092E00E94F8020DE910E0F801249159E830
:100DE000E52E50E0F52EF70184918823C9F090E0BC
:100DF000880F991FFC01E859FF4FA591B491FC01A0
:100E0000E458FF4F459154913FB7F8949C91822F3D
:100E1000809598239C93FA019081892380833FBF1A
:100E200068E371E088EB92E00E946003E0911F02AA
:100E3000F091200282E08083E0911B02F0911C027D
:100E40001082E0911D02F0911E028FEC80831092BF
:100E50002702E0912302F091240286E08083E09152
:100E60002102F0912202808180618083E091210241
:100E7000F0912202808188608083E0912102F091CC
:100E80002202808180688083E0912102F091220219
:100E900080818F7D808321EBC22E20E0D22E30E036
:100EA000A32E30E0B32EF6018491F8019490F7015F
:100EB0008490882009F4A2C081110E948C00E82D42
:100EC000F0E0EE0FFF1FEE58FF4FA591B4918C910B
:100ED000982291E080E009F490E0892E982E90927B
:100EE00005028092040288E0E0E0F1E0DE01119664
:100EF00001900D928A95E1F78091C002EFEF811188
:100F0000E1E0F0E0EE0FFF1F81E090E08C0F9D1F0D
:100F1000E80FF91F6081606840E088EB92E00E9472
:100F2000D4038A94892861F580910202909103028A
:100F3000892B31F54090000250900102EFEF4E1ADC
:100F40005E0A5092010240920002052C000C6608D5
:100F500077082AE0B301A20177FE0EC041E06DE2FE
:100F600088EB92E00E94D40344275527BA01441924
:100F70005509660977092AE088EB92E00E946F0321
:100F800080910402909105029093030280930202E3
:100F90006AE471E08FE092E00E94600340900002FA
:100FA00050900102052C000C660877082AE0B30176
:100FB000A20177FE0DC06DE28FE092E00E94D401A5
:100FC00044275527BA0144195509660977092AE0CB
:100FD0008FE092E00E946F0368E471E08FE092E09E
:100FE0000E946003A114B10409F45DCF0E949E0128
:100FF000882309F458CF0E94000055CF912C812CF2
:101000006ECFA1E21A2EAA1BBB1BFD010DC0AA1FA9
:10101000BB1FEE1FFF1FA217B307E407F50720F061
:10102000A21BB30BE40BF50B661F771F881F991FDC
:101030001A9469F760957095809590959B01AC0125
:10104000BD01CF010895EE0FFF1F0590F491E02D33
:061050000994F894FFCFA3
:10105600000040001400540000000000D4013201DA
:101066006101210292017001840100000000C902A1
:101076009C025D0372029502820273020000000068
:10108600EB0332015D035C03427574746F6E20508E
:0C1096007265737365733A000D0A000068
:00000001FF
