:100000000C94CC000C94CE040C94A7040C948004A3
:100010000C9459040C94F4000C94F4000C943204E5
:100020000C94F4000C94F4000C94F5040C94640506
:100030000C94F4000C94F4000C94F4000C94F40070
:100040000C94F4000C94F4000C94F4000C94F40060
:100050000C94F4000C94F4000C94F4000C94E80359
:100060000C94F4000C94F4000C94F4000C94F40040
:100070000C94F4000C94F4000C94F4000C94F40030
:100080000C94F4000C94F4000C94F4000C94F40020
:100090000C94F4000C94F4000C94F4000C94F40010
:1000A0000C94F4000C94F4000C94F4000000000094
:1000B000240027002A002D003000080B0002020255
:1000C00001000904000001020200000524001001E3
:1000D0000524010101042402060524060001070588
:1000E000810310004009040100020A000000070516
:1000F00002024000000705830240000004030904D7
:1001000012010002EF02014041234180000101027F
:10011000030141726475696E6F204C4C430041725B
:100120006475696E6F2059756E000000000025002F
:1001300028002B002E0031000404040404030405ED
:100140000202020204030202020206060606060674
:10015000040402020204040408020110408040105A
:1001600020408040800802040180402010020110DD
:100170008010204040200000000200090F00000312
:100180000401000C0000000000000000000000005E
:100190000000000000008D0811241FBECFEFDAE040
:1001A000DEBFCDBF11E0A0E0B1E0E4E5F1E102C0C7
:1001B00005900D92A434B107D9F721E0A4E4B1E091
:1001C00001C01D92A33BB207E1F710E0CCECD0E0F8
:1001D00004C02197FE010E94A208CB3CD107C9F7B9
:1001E0000E9496070C94A8080C940000FC018091D2
:1001F0006201882311F13FB7F89482E08093E9000F
:100200002091F200822F90E01816190614F481E074
:1002100090E0882339F0289844E6409361014091AA
:10022000F1004083222339F02091F200211103C014
:100230002BE62093E8003FBF08958FEF9FEF0895CE
:100240002FB7F89483E08093E9009091E800892F1C
:10025000807295FF04C09091F20080E4891B2FBF4B
:1002600008958091590181110DC082E0809355015C
:1002700084E080935601109258011092570181E05A
:100280008093590185E591E00895282F30E0F90128
:10029000EA58FE4F9491F901E95AFE4F8491285C87
:1002A0003E4FF9012491222309F430C09923E9F04B
:1002B00091509F30D0F4E92FF0E0EF59FE4F0C94AD
:1002C000A2088F019301700187018B0175017501EF
:1002D000750196019C01A001A401AA017501AE015E
:1002E000909180009F7790938000E22FF0E0EE0FD6
:1002F000FF1FE65DFE4FA591B4919FB7F894EC9176
:10030000611132C080958E238C939FBF0895909188
:1003100080009F7DE8CF90918000977FE4CF94B5D7
:100320009F7794BDE2CF94B59F7DFBCF90919000D5
:100330009F7790939000D9CF909190009F7DF9CFB7
:1003400090919000977FF5CF9091C0009F77909308
:10035000C000CBCF9091C0009F7DF9CF9091C2009B
:10036000977F9093C200C1CF8E2BCECF3FB7F8942A
:100370008091510190915201A0915301B09154018B
:1003800026B5A89B05C02F3F19F00196A11DB11DF0
:100390003FBFBA2FA92F982F8827BC01CD01620F2C
:1003A000711D811D911D42E0660F771F881F991FE7
:1003B0004A95D1F70895CF92DF92EF92FF920E9473
:1003C000B6016B017C010E94B6016C197D098E0992
:1003D0009F09683E734081059105A8F3FF90EF9057
:1003E000DF90CF90089508954091460150914701C4
:1003F000209144013091450142175307B4F4909184
:10040000E8009570E1F39091E80092FD19C08093A7
:10041000F100809146019091470101968F739927D1
:10042000892B19F48EEF8093E8008091460190911A
:1004300047010196909347018093460181E008951A
:1004400080E00895EF92FF920F931F93CF93DF9375
:10045000F82E192FE62E042F81E0860F880F0E94B8
:10046000F40183E00E94F401CF2DD12FEC0EFD2E7C
:10047000F11CCE15DF05B9F007FF13C0FE01849112
:100480000E94F401182F80E00E94F401812321963C
:100490008111EFCFDF91CF911F910F91FF90EF90DE
:1004A00008958881EDCF81E0F5CFDF92EF92FF9242
:1004B0000F931F93CF93DF93D82E8A01EB017B011B
:1004C000E40EF51ECE15DF0559F0D7FE12C0FE0171
:1004D00084910E94F40121968111F4CF0FEF1FEF58
:1004E000C801DF91CF911F910F91FF90EF90DF90A6
:1004F00008958881EECF0F931F93CF93DF931F92C0
:10050000CDB7DEB782E0898342E450E06AEB70E069
:1005100080E80E9455020E943101DC0112960D9183
:100520001C910115110589F0D801ED91FC91028013
:10053000F381E02DBE016F5F7F4FC801099597FDE4
:1005400004C0F80100851185ECCF89810F90DF91FF
:10055000CF911F910F910895615030F02091F100DB
:10056000FC0120830196F8CF289884E680936101EE
:1005700008958F929F92AF92BF92CF92DF92EF92A7
:10058000FF920F931F93CF93DF936C017B018A013E
:1005900080910B01882309F458C08091620188235F
:1005A00009F453C080914A0180FF05C08091E000AA
:1005B00082608093E000E801B12C8AEFA82E93E0DE
:1005C000892E2AE3922E209711F4BB20B9F10E94C4
:1005D0002001811106C0AA94AA20B9F10E94DB0172
:1005E000F2CF8C171D0611F00CF08C2F9FB7F894EA
:1005F0008092E9002091E80025FD02C09FBFE3CF73
:10060000282F30E0C21BD30BF701815020F041911D
:100610004093F100FACFE20EF31EBB2021F090923E
:10062000E800B12CEBCF8091E80085FDE7CF9092F8
:10063000E800BB24B394209709F3F3CF5D9884E6D8
:1006400080934B01101611063CF081E090E0F6011A
:100650009383828310E000E0C801DF91CF911F9166
:100660000F91FF90EF90DF90CF90BF90AF909F9051
:100670008F900895CF93DF931F92CDB7DEB7698334
:10068000DC01ED91FC910280F381E02D41E050E02E
:10069000BE016F5F7F4F09950F90DF91CF91089555
:1006A00083E08093E9008091F200882319F08AE3C7
:1006B0008093E80008950E94200190E00895CF9370
:1006C000DF931F92CDB7DEB7FC018485958597FD3A
:1006D00008C02FEF3FEF358724870F90DF91CF9130
:1006E0000895CE0101960E94F600019719F48981C0
:1006F00090E0F3CF8FEF9FEFF0CF0F931F93CF9347
:10070000DF931F92CDB7DEB78C01FC018485958500
:1007100097FF0BC0CE0101960E94F600019771F47D
:10072000898190E0F80195878487F8018485958513
:100730000F90DF91CF911F910F9108958FEF9FEF51
:10074000F1CFFC018485958597FD0BC09FB7F89488
:1007500082E08093E9008091F2009FBF90E00196D3
:1007600008959FB7F89482E08093E9008091F200A9
:100770009FBF90E00895CF93DF93FC01019000208C
:10078000E9F73197AF01481B590BBC0183E691E0B3
:100790000E94B902EC0142E050E06FE271E083E6B2
:1007A00091E00E94B9028C0F9D1FDF91CF910895B7
:1007B00061E087E00E94450182E391E00C94BB0375
:1007C00060E087E00E94450182E391E00C94BB0366
:1007D0001F920F920FB60F9211242F933F938F9376
:1007E0009F93AF93BF9380914D0190914E01A09143
:1007F0004F01B091500130914C0123E0230F2D3770
:1008000058F50196A11DB11D20934C0180934D0117
:1008100090934E01A0934F01B093500180915101EC
:1008200090915201A0915301B09154010196A11DE4
:10083000B11D8093510190935201A0935301B09345
:100840005401BF91AF919F918F913F912F910F9044
:100850000FBE0F901F90189526E8230F0296A11D3A
:10086000B11DD2CF1F920F920FB60F9211242F936A
:100870003F934F935F936F937F938F939F93AF9328
:10088000BF93EF93FF93E0911401F0911501099547
:10089000FF91EF91BF91AF919F918F917F916F9158
:1008A0005F914F913F912F910F900FBE0F901F902E
:1008B00018951F920F920FB60F9211242F933F930A
:1008C0004F935F936F937F938F939F93AF93BF9358
:1008D000EF93FF93E0911201F09113010995FF91BD
:1008E000EF91BF91AF919F918F917F916F915F91A8
:1008F0004F913F912F910F900FBE0F901F90189521
:100900001F920F920FB60F9211242F933F934F9384
:100910005F936F937F938F939F93AF93BF93EF9367
:10092000FF93E0911001F09111010995FF91EF9172
:10093000BF91AF919F918F917F916F915F914F91F7
:100940003F912F910F900FBE0F901F9018951F92FF
:100950000F920FB60F9211242F933F934F935F93F3
:100960006F937F938F939F93AF93BF93EF93FF9377
:10097000E0910E01F0910F010995FF91EF91BF9168
:10098000AF919F918F917F916F915F914F913F9127
:100990002F910F900FBE0F901F9018951F920F92DE
:1009A0000FB60F9211242F933F934F935F936F9342
:1009B0007F938F939F93AF93BF93EF93FF93E091B8
:1009C0000C01F0910D010995FF91EF91BF91AF914D
:1009D0009F918F917F916F915F914F913F912F9157
:1009E0000F900FBE0F901F9018951F920F920FB689
:1009F0000F9211248F939F938091E1009091E100D9
:100A0000937F9093E10083FF0FC01092E90091E083
:100A10009093EB001092EC0092E39093ED00109213
:100A2000620198E09093F00082FF22C093E09093DF
:100A3000E9009091F200992319F09AE39093E8006D
:100A400090914B01992341F090914B0191509093DB
:100A50004B01911101C05D9A90916101992341F080
:100A600090916101915090936101911101C0289A78
:100A700084FF18C08091E2008E7E81608093E20046
:100A80008091E1008F7E8093E10080914A018E7E0B
:100A9000806180934A019F918F910F900FBE0F90BC
:100AA0001F90189580FFF7CF8091E2008E7E8061C5
:100AB0008093E2008091E1008E7E8093E10080913E
:100AC0004A018E7E8160E5CF1F920F920FB60F9282
:100AD0001124CF92DF92EF92FF920F931F932F93E7
:100AE0003F934F935F936F937F938F939F93AF93B6
:100AF000BF93EF93FF93CF93DF93CDB7DEB76C97A0
:100B0000DEBFCDBF1092E9008091E80083FF25C0D1
:100B100068E0CE0145960E94AC0282EF8093E80027
:100B20008D8987FF39C09091E80090FFFCCF982F06
:100B3000907609F034C19E894F89588D2F89F88CA1
:100B4000911131C0803861F5809149018093F100A5
:100B50001092F1008EEF8093E8006C960FB6F89437
:100B6000DEBF0FBECDBFDF91CF91FF91EF91BF915F
:100B7000AF919F918F917F916F915F914F913F9135
:100B80002F911F910F91FF90EF90DF90CF900F90DA
:100B90000FBE0F901F9018959EEF9093E800C7CF5F
:100BA0001092F100D5CF913059F48111D3CF41305B
:100BB000510581F6809149018D7F80934901CACF0B
:100BC000933049F48111C6CF4130510519F6809117
:100BD00049018260F2CF953041F48091E80080FFB6
:100BE000FCCF20682093E300B5CF963009F0A9C070
:100BF0000B8D1C8D22E01092E9001092470110929B
:100C00004601F2122EC010924501109244010E943A
:100C10007B021F8299E09983FA8291E09E8390EA99
:100C200098879AEF99872091460130914701275F75
:100C30003F4F3C832B838D831092E9001092470134
:100C400010924601109345010093440149E050E0A1
:100C5000BE016F5F7F4F80E00E9455020E947B02C1
:100C600079CF10934501009344010E943101DC01CA
:100C700012960D911C910115110509F451C1D8016D
:100C8000ED91FC910480F581E02DBE016B5E7F4FFC
:100C9000C8010995009709F03EC1F801008511854A
:100CA000EACFF3E0FF120EC08F89882309F440C019
:100CB000823061F440E86BE08EE191E00E94220214
:100CC000811148CF81E28093EB0047CF813029F436
:100CD00040E86BE082E191E0F1CF833099F70E9428
:100CE0003101DC011296ED90FC908E010F5F1F4FD9
:100CF0006801E114F10479F0D701ED91FC910680CF
:100D0000F781E02DB801C7010995080F111DF70102
:100D1000E084F184EECFD8011C92F601019000200E
:100D2000E9F73197BF016C197D0940E0C601C6CFD4
:100D30006CEF70E0FB01449150E080E80E945502A6
:100D400009CF973009F4BECF983021F481E0809329
:100D5000F10000CF993009F0FDCE837009F0B2CFD9
:100D6000E9E2F1E081E031E096E32191222371F0A4
:100D70008093E9003093EB00DF0111972C912093D1
:100D8000EC009093ED008F5F873079F78EE78093CA
:100D9000EA001092EA008F8980936201DBCE8B8D8E
:100DA0009C8D1092E9001092470110924601909399
:100DB000450180934401898D811192C08E899D895E
:100DC000913A49F4813209F07DCF47E050E064E088
:100DD00071E080E0B3CF913209F074CF833269F4CF
:100DE0008F89988DB0E0A0E080930001909301017D
:100DF000A0930201B0930301ADCE803269F48091DB
:100E0000E80082FFFCCF67E084E091E00E94AC0242
:100E10008BEF8093E8009ECE823209F09BCE8F89C3
:100E200080930B01EEEFFFE7859194918B3F9C4DF2
:100E300051F1E0E0F8E08091040190910501A0916A
:100E40000601B0910701803B9440A105B105F1F482
:100E500080910B0180FD1AC0EE3F8AE0F80789F50A
:100E600087E797E7918380838091600080934801B2
:100E700088E19BE00FB6F894A895809360000FBEC0
:100E80009093600067CEEEEFFAE0D5CF808191813C
:100E90008737974709F05ECEA895809160008861FA
:100EA000809360008091480180936000EE3F2AE0CB
:100EB000F20789F08091FE0A9091FF0A9183808366
:100EC00049CE808191818737980751F29093FF0A2C
:100ED0008093FE0AC5CF1092FF0A1092FE0A3ACE06
:100EE0000E943101DC0112960D911C910115110532
:100EF00009F4E8CED801ED91FC910190F081E02D4C
:100F0000BE016B5E7F4FC8010995811123CEF801A8
:100F100000851185EBCF181619060CF41BCED2CE26
:100F2000F1E0FF12BECE60E071E004CF789484B5AA
:100F3000826084BD84B5816084BD85B5826085BDD5
:100F400085B5816085BD80916E00816080936E0063
:100F50001092810080918100826080938100809155
:100F60008100816080938100809180008160809306
:100F70008000809191008260809391008091910027
:100F800081608093910080919000816080939000B7
:100F90008091C10084608093C1008091C100826013
:100FA0008093C1008091C10081608093C1008091D5
:100FB000C30081608093C3008091C00082608093F1
:100FC000C0008091C20081608093C20080917A004D
:100FD000846080937A0080917A00826080937A00A6
:100FE00080917A00816080937A0080917A00806895
:100FF00080937A00109262011092490110924A0186
:101000008091D70081608093D70080EA8093D800D8
:1010100089B5806189BD89B5826089BD09B400FE4A
:10102000FDCF0E94DB018091D8008F7C806180938E
:10103000D8008091E000807F8093E0008091E10003
:101040008E7E8093E1008DE08093E200559A209A95
:10105000E9E5F1E02491EAE3F1E084918823C1F02D
:1010600090E0880F991FFC01E455FF4FC591D49182
:10107000FC01E65DFE4FA591B4919FB7F8943881CD
:10108000822F809583238883EC91E22BEC939FBF82
:10109000EEE5F1E02491EFE3F1E08491882399F00B
:1010A00090E0880F991FFC01E455FF4FA591B49182
:1010B000FC01E65DFE4F859194918FB7F894EC9119
:1010C000E22BEC938FBF8FEF9FEF90937001809393
:1010D0006F0188ED93E090930F0180930E01809152
:1010E00069008C6080936900E99A80EE93E09093A8
:1010F0000F0180930E0180916900837F8860809347
:101100006900E99AC0E0D0E086E391E00E94BB0369
:101110002097D1F30E940000F7CFE3E6F1E01382BD
:10112000128288EE93E0A0E0B0E084839583A683EA
:10113000B7838AE191E0918380838FEF9FEF95875A
:1011400084870895EE0FFF1F0590F491E02D099418
:04115000F894FFCF41
:10115400FFFFFFFF00E1000000000000F301F301C6
:10116400F301F301F301000000003A03B9025B0349
:101174005003A1035F037D0300C180810000000DC3
:101184000A004F4646004A757374796E7761736836
:04119400657265001B
:00000001FF
