:100000000C945D000C947F020C9458020C948500B3
:100010000C9485000C9485000C9485000C9485004C
:100020000C9485000C9485000C9485000C9485003C
:100030000C9485000C9485000C9485000C9485002C
:100040000C940E020C9485000C94CC020C94A60225
:100050000C9485000C9485000C9485000C9485000C
:100060000C9485000C9485000000000024002700FB
:100070002A0000000000250028002B0004040404CE
:100080000404040402020202020203030303030342
:10009000010204081020408001020408102001021F
:1000A00004081020000000080002010000030407FB
:1000B0000000000000000000D50311241FBECFEF98
:1000C000D8E0DEBFCDBF11E0A0E0B1E0E4E1F8E0B0
:1000D00002C005900D92A032B107D9F721E0A0E24D
:1000E000B1E001C01D92A63CB207E1F710E0CDE5FA
:1000F000D0E004C02197FE010E940204CC35D10754
:10010000C9F70E94FE020C9408040C94000090E0D1
:10011000FC01EC55FF4F2491FC01E057FF4F349157
:10012000FC01E458FF4FE491EE23C9F0222339F09B
:10013000233001F1A8F4213019F1223029F1F0E047
:10014000EE0FFF1FEE58FF4FA591B4918FB7F894B3
:10015000EC91611126C030953E233C938FBF0895EA
:100160002730A9F02830C9F0243049F78091800069
:100170008F7D03C0809180008F7780938000DFCFD8
:1001800084B58F7784BDDBCF84B58F7DFBCF809125
:10019000B0008F778093B000D2CF8091B0008F7D78
:1001A000F9CF3E2BDACF0895AF92BF92CF92DF9274
:1001B000EF92FF920F931F93CF93DF936C017B011C
:1001C0008B01040F151FEB015E01AE18BF08C017AD
:1001D000D10759F06991D601ED91FC910190F08120
:1001E000E02DC6010995892B79F7C501DF91CF91E3
:1001F0001F910F91FF90EF90DF90CF90BF90AF9045
:100200000895FC01538D448D252F30E0842F90E01C
:10021000821B930B541710F0CF9608950197089501
:10022000FC01918D828D981761F0A28DAE0FBF2FCA
:10023000B11D5D968C91928D9F5F9F73928F90E020
:1002400008958FEF9FEF0895FC01918D828D98178F
:1002500031F0828DE80FF11D858D90E008958FEFCC
:100260009FEF0895FC01918D228D892F90E0805C95
:100270009F4F821B91098F739927089589E291E01E
:100280000E94320121E0892B09F420E0822F089599
:1002900080E090E0892B29F00E943E0181110C94AE
:1002A00000000895FC01A48DA80FB92FB11DA35A19
:1002B000BF4F2C91848D90E001968F739927848F86
:1002C000A689B7892C93A089B1898C9183708064A9
:1002D0008C93938D848D981306C00288F389E02D4A
:1002E00080818F7D80830895EF92FF920F931F93FB
:1002F000CF93DF93EC0181E0888F9B8D8C8D9813D9
:100300001AC0E889F989808185FF15C09FB7F894E4
:10031000EE89FF896083E889F98980818370806430
:1003200080839FBF81E090E0DF91CF911F910F917B
:10033000FF90EF900895F62E0B8D10E00F5F1F4F8A
:100340000F731127E02E8C8D8E110CC00FB607FC99
:10035000FACFE889F989808185FFF5CFCE010E9427
:100360005201F1CFEB8DEC0FFD2FF11DE35AFF4F42
:10037000F0829FB7F8940B8FEA89FB8980818062B5
:10038000CFCFCF93DF93EC01888D8823B9F0AA8972
:10039000BB89E889F9898C9185FD03C0808186FD40
:1003A0000DC00FB607FCF7CF8C9185FFF2CF80818F
:1003B00085FFEDCFCE010E945201E9CFDF91CF91B1
:1003C0000895CF93DF93FC0101900020E9F7319766
:1003D000AF01481B590BBC0189E291E00E94D40097
:1003E000EC0142E050E066E171E089E291E00E94B8
:1003F000D4008C0F9D1FDF91CF91089561E083E0C1
:100400000E94870089E191E00C94E10160E083E0C3
:100410000E9487008CE191E00C94E1011F920F9201
:100420000FB60F9211242F933F938F939F93AF9307
:10043000BF938091250190912601A0912701B09151
:1004400028013091240123E0230F2D3758F5019620
:10045000A11DB11D209324018093250190932601B5
:10046000A0932701B0932801809120019091210150
:10047000A0912201B09123010196A11DB11D80938D
:10048000200190932101A0932201B0932301BF91F9
:10049000AF919F918F913F912F910F900FBE0F9031
:1004A0001F90189526E8230F0296A11DB11DD2CFEB
:1004B0001F920F920FB60F9211242F933F934F93D9
:1004C0005F936F937F938F939F93AF93BF93EF93BC
:1004D000FF93E0910201F09103010995FF91EF91E3
:1004E000BF91AF919F918F917F916F915F914F914C
:1004F0003F912F910F900FBE0F901F9018951F9254
:100500000F920FB60F9211242F933F934F935F9347
:100510006F937F938F939F93AF93BF93EF93FF93CB
:10052000E0910001F09101010995FF91EF91BF91D8
:10053000AF919F918F917F916F915F914F913F917B
:100540002F910F900FBE0F901F9018951F920F9232
:100550000FB60F9211242F933F934F935F936F9396
:100560007F938F939F93AF93BF93EF93FF9389E212
:1005700091E00E945201FF91EF91BF91AF919F9145
:100580008F917F916F915F914F913F912F910F903C
:100590000FBE0F901F9018951F920F920FB60F92DB
:1005A00011242F938F939F93EF93FF93E091390141
:1005B000F0913A018081E0913F01F091400182FD8C
:1005C0001BC09081809142018F5F8F732091430106
:1005D000821741F0E0914201F0E0E75DFE4F958F18
:1005E00080934201FF91EF919F918F912F910F90F6
:1005F0000FBE0F901F9018958081F4CF789484B52A
:10060000826084BD84B5816084BD85B5826085BD0E
:1006100085B5816085BD80916E00816080936E009C
:10062000109281008091810082608093810080918E
:10063000810081608093810080918000816080933F
:1006400080008091B10084608093B1008091B000FF
:1006500081608093B00080917A00846080937A00FA
:1006600080917A00826080937A0080917A00816024
:1006700080937A0080917A00806880937A0010924B
:10068000C100E4E9F0E02491E0E8F0E084918823FF
:10069000C1F090E0880F991FFC01E859FF4FC59108
:1006A000D491FC01EE58FF4FA591B4919FB7F894F7
:1006B0003881822F809583238883EC91E22BEC9301
:1006C0009FBFE3E9F0E02491EFE7F0E08491882315
:1006D00099F090E0880F991FFC01E859FF4FA59110
:1006E000B491FC01EE58FF4F859194918FB7F89427
:1006F000EC91E22BEC938FBFE0913901F0913A013C
:1007000082E08083E0913501F09136011082E09122
:100710003701F09138018FEC808310924101E09114
:100720003D01F0913E0186E08083E0913B01F09134
:100730003C01808180618083E0913B01F0913C012C
:10074000808188608083E0913B01F0913C01808151
:1007500080688083E0913B01F0913C0180818F7D36
:1007600080838EEF91E0909301018093000180914E
:100770006900836080936900E89A86E092E0909334
:1007800003018093020180916900837F88608093D8
:100790006900E99AC0E0D0E02097F1F30E943E01A1
:1007A0008823D1F30E940000F7CFE9E2F1E0138241
:1007B000128288EE93E0A0E0B0E084839583A68364
:1007C000B78388E091E09183808385EC90E0958702
:1007D000848784EC90E09787868780EC90E0918B0B
:1007E000808B81EC90E0938B828B82EC90E0958BF8
:1007F000848B86EC90E0978B868B118E128E138EF5
:10080000148E0895EE0FFF1F0590F491E02D0994CA
:04081000F894FFCF8A
:10081400D300D300000000007401D4000101C10121
:100824003201100124010D0A004F4E004F464600CC
:00000001FF
